:100000000C9434000C943E000C943E000C943E0082
:100010000C943E000C943E000C943E000C943E0068
:100020000C943E000C943E000C943E000C943E0058
:100030000C943E000C943E000C943E000C943E0048
:100040000C943E000C943E000C943E000C943E0038
:100050000C943E000C943E000C943E000C943E0028
:100060000C943E000C943E0011241FBECFEFD8E04C
:10007000DEBFCDBF0E9475000C9483020C9400007B
:1000800087E68093C4001092C50086E08093C2008A
:10009000E1ECF0E08081886080830895AC0120E08D
:1000A00007C09091C00095FFFCCF3093C6002F5F32
:1000B000FA01E20FF11D30813111F3CF0895BC0137
:1000C000990F880B990B0E94550120E030E048EC15
:1000D00052E40E94E10120E030EC4FE754E40E943A
:1000E000AB000E941D01CB010895CF93DF9300D098
:1000F00000D01F92CDB7DEB710927C000E94400066
:1001000080E880937A00EAE7F0E080818064808371
:1001100080917A0084FFFCCFEAE7F0E08081806183
:1001200080832FEF89E698E1215080409040E1F7ED
:1001300000C0000080917800909179000E945F00DB
:100140004AE0BE016F5F7F4F0E944E02CE010196D2
:100150000E944E00D8CF0E94BF000C94A7010E94BD
:10016000A00158F00E94990140F029F45F3F29F066
:100170000C94900151110C94DB010C9496010E9497
:10018000B80168F39923B1F3552391F3951B550BEF
:10019000BB27AA2762177307840738F09F5F5F4F5A
:1001A000220F331F441FAA1FA9F335D00E2E3AF099
:1001B000E0E832D091505040E695001CCAF72BD0B1
:1001C000FE2F29D0660F771F881FBB1F2617370702
:1001D0004807AB07B0E809F0BB0B802DBF01FF2734
:1001E00093585F4F3AF09E3F510578F00C94900180
:1001F0000C94DB015F3FE4F3983ED4F3869577954A
:100200006795B795F7959F5FC9F7880F911D9695EC
:10021000879597F90895E1E0660F771F881FBB1F48
:10022000621773078407BA0720F0621B730B840BF5
:10023000BA0BEE1F88F7E09508950E942401689498
:10024000B1110C94DB0108950E94C00188F09F5702
:1002500098F0B92F9927B751B0F0E1F0660F771FEA
:10026000881F991F1AF0BA95C9F714C0B13091F0E0
:100270000E94DA01B1E008950C94DA01672F782F1B
:100280008827B85F39F0B93FCCF3869577956795A5
:10029000B395D9F73EF490958095709561957F4F11
:1002A0008F4F9F4F0895E89409C097FB3EF49095B7
:1002B0008095709561957F4F8F4F9F4F9923A9F03F
:1002C000F92F96E9BB279395F695879577956795CE
:1002D000B795F111F8CFFAF4BB0F11F460FF1BC012
:1002E0006F5F7F4F8F4F9F4F16C0882311F096E9A5
:1002F00011C0772321F09EE8872F762F05C0662353
:1003000071F096E8862F70E060E02AF09A95660F0B
:10031000771F881FDAF7880F9695879597F90895C4
:1003200097F99F6780E870E060E008959FEF80ECA8
:10033000089500240A94161617061806090608954B
:1003400000240A9412161306140605060895092EB1
:100350000394000C11F4882352F0BB0F40F4BF2B20
:1003600011F460FF04C06F5F7F4F8F4F9F4F089560
:1003700057FD9058440F551F59F05F3F71F0479556
:10038000880F97FB991F61F09F3F79F0879508953B
:10039000121613061406551FF2CF4695F1DF08C05A
:1003A000161617061806991FF1CF86957105610577
:1003B00008940895E894BB2766277727CB0197F91F
:1003C00008950E94F4010C94A7010E94990138F04D
:1003D0000E94A00120F0952311F00C9490010C9440
:1003E000960111240C94DB010E94B80170F3959FD3
:1003F000C1F3950F50E0551F629FF001729FBB271C
:10040000F00DB11D639FAA27F00DB11DAA1F649FB7
:100410006627B00DA11D661F829F2227B00DA11D6A
:10042000621F739FB00DA11D621F839FA00D611DF0
:10043000221F749F3327A00D611D231F849F600D11
:10044000211D822F762F6A2F11249F5750409AF03A
:10045000F1F088234AF0EE0FFF1FBB1F661F771FC6
:10046000881F91505040A9F79E3F510580F00C9491
:1004700090010C94DB015F3FE4F3983ED4F3869542
:1004800077956795B795F795E7959F5FC1F7FE2B31
:10049000880F911D9695879597F90895BB274A3047
:1004A00031F4992322F4BDE2909581959F4F0C94ED
:1004B0005A02BB27FB015527AA27880F991FAA1F9D
:1004C000A41710F0A41B83955051B9F7A05DAA336F
:1004D00008F0A95DA193009779F7B111B19311923A
:1004E000CB010C947302DC01FC01672F719177231F
:1004F000E1F7329704C07C916D9370836291AE17DF
:0A050000BF07C8F30895F894FFCF79
:00000001FF
