S00D00004D697865722E7372656312
S11300000C9434000C9451000C9451000C94510045
S11300100C9451000C9451000C9451000C94510018
S11300200C9451000C9451000C9451000C94510008
S11300300C9451000C9451000C9451000C945100F8
S11300400C9451000C9451000C9451000C945100E8
S11300500C9451000C9451000C9451000C945100D8
S11300600C9451000C94510011241FBECFEFD8E022
S1130070DEBFCDBF11E0A0E0B1E0E8ECF6E002C0E5
S113008005900D92A630B107D9F721E0A6E0B1E0C2
S113009001C01D92A431B207E1F70E9404010C943F
S11300A062030C94000087B18C7E87B988B18F619C
S11300B088B90895CF93DF9300D0CDB7DEB796B15A
S11300C081E08927817091E020910601211190E05F
S11300D0892319F081E08093060186B126B18695C3
S11300E091E0892792279170892390E0409106013D
S11300F050E084239523892B31F082E0809307011B
S11301008093060114C096B126B181E08927269513
S11301102170982F9223892F90E084239523892B93
S113012031F081E08093070182E08093060196B16B
S113013086B186958170892391E020910601223051
S113014009F090E0882319F0911110920601349976
S113015012C01A82198205C089819A8101969A83F4
S1130160898389819A818F3F9F40B0F3349903C07A
S113017083E0809307010F900F90DF91CF91089552
S113018080910701089510920701089587E68093EE
S1130190C4001092C50086E08093C200E1ECF0E058
S11301A080818860808308959091C00095FFFCCF82
S11301B08093C60008950F931F93CF938C01C0E0E2
S11301C003C00E94D400CF5FF801EC0FF11D8081C1
S11301D08111F7CFCF911F910F910895BC01990F11
S11301E0880B990B0E94340220E030E048EC52E482
S11301F00E94C00220E030EC4FE754E40E948A01E0
S11302000E94FC01CB0108950E9453000E94C60085
S113021080E880937A000E945A000E94C0008230D5
S113022031F48091080181508093080109C00E9433
S1130230C000813029F4809108018F5F8093080108
S11302408091080188231CF41092080105C08536AA
S11302501CF084E680930801809108014AE06EE076
S113026071E0082E000C990B0E942D038EE091E0A2
S11302700E94DB008CE70E94D4000E94C3003AC0B5
S113028080E880937A0080910001806480937C00F0
S113029020E030E010C0EAE7F0E0808180648083F1
S11302A080917A0084FFFCCFEAE7F0E080818061EE
S11302B080832F5F3F4F223031056CF380917800AB
S11302C0909179000E94EE00809313014AE06EE061
S11302D071E0082E000C990B0E942D038EE091E032
S11302E00E94DB008CE70E94D400809100018F5FA4
S11302F08093000180910001853010F281E091E04B
S11303000E94DB0083E091E00E94DB0082E08093A6
S1130310000181CF0E949E010C9486020E947F02FC
S113032058F00E94780240F029F45F3F29F00C94C1
S11303306F0251110C94BA020C9475020E94970238
S113034068F39923B1F3552391F3951B550BBB2700
S1130350AA2762177307840738F09F5F5F4F220F45
S1130360331F441FAA1FA9F335D00E2E3AF0E0E83C
S113037032D091505040E695001CCAF72BD0FE2F86
S113038029D0660F771F881FBB1F2617370748071A
S1130390AB07B0E809F0BB0B802DBF01FF279358D2
S11303A05F4F3AF09E3F510578F00C946F020C9425
S11303B0BA025F3FE4F3983ED4F386957795679548
S11303C0B795F7959F5FC9F7880F911D9695879507
S11303D097F90895E1E0660F771F881FBB1F621726
S11303E073078407BA0720F0621B730B840BBA0BE4
S11303F0EE1F88F7E09508950E9403026894B111F6
S11304000C94BA0208950E949F0288F09F5798F0B6
S1130410B92F9927B751B0F0E1F0660F771F881F05
S1130420991F1AF0BA95C9F714C0B13091F00E941F
S1130430B902B1E008950C94B902672F782F882788
S1130440B85F39F0B93FCCF3869577956795B39546
S1130450D9F73EF490958095709561957F4F8F4FB5
S11304609F4F0895E89409C097FB3EF490958095BA
S1130470709561957F4F8F4F9F4F9923A9F0F92F66
S113048096E9BB279395F695879577956795B795E4
S1130490F111F8CFFAF4BB0F11F460FF1BC06F5FCA
S11304A07F4F8F4F9F4F16C0882311F096E911C0DC
S11304B0772321F09EE8872F762F05C0662371F0FD
S11304C096E8862F70E060E02AF09A95660F771F11
S11304D0881FDAF7880F9695879597F9089597F905
S11304E09F6780E870E060E008959FEF80EC0895D6
S11304F000240A94161617061806090608950024FF
S11305000A9412161306140605060895092E039478
S1130510000C11F4882352F0BB0F40F4BF2B11F4EC
S113052060FF04C06F5F7F4F8F4F9F4F089557FD4B
S11305309058440F551F59F05F3F71F04795880F4D
S113054097FB991F61F09F3F79F0879508951216E4
S113055013061406551FF2CF4695F1DF08C0161690
S113056017061806991FF1CF869571056105089441
S11305700895E894BB2766277727CB0197F9089558
S11305800E94D3020C9486020E94780238F00E94E2
S11305907F0220F0952311F00C946F020C947502E5
S11305A011240C94BA020E94970270F3959FC1F330
S11305B0950F50E0551F629FF001729FBB27F00D0D
S11305C0B11D639FAA27F00DB11DAA1F649F662762
S11305D0B00DA11D661F829F2227B00DA11D621FB1
S11305E0739FB00DA11D621F839FA00D611D221F6B
S11305F0749F3327A00D611D231F849F600D211D4F
S1130600822F762F6A2F11249F5750409AF0F1F0D1
S113061088234AF0EE0FFF1FBB1F661F771F881F3A
S113062091505040A9F79E3F510580F00C946F0201
S11306300C94BA025F3FE4F3983ED4F38695779521
S11306406795B795F795E7959F5FC1F7FE2B880FE0
S1130650911D9695879597F90895BB274A3031F4F3
S1130660992322F4BDE2909581959F4F0C94390310
S1130670BB27FB015527AA27880F991FAA1FA41778
S113068010F0A41B83955051B9F7A05DAA3308F06C
S1130690A95DA193009779F7B111B1931192CB01A0
S11306A00C945203DC01FC01672F71917723E1F76D
S11306B0329704C07C916D9370836291AE17BF072B
S10B06C0C8F30895F894FFCF7C
S10906C8020D000A00000F
S9030000FC
